0000000000030000VICENTE,ANA MARIA                                           0000                                                       NO          SI          SI          SI          
2017066762030001STARBYTE COMPUTER                                           0000                                                       SI          NO          SI          SI          
3050629068230002LABADIE LAB. ARG. DE IND.SACI                               0000                                                       SI          SI          SI          SI          
3064104140430003FARMA MIX                                                   0000                                                       SI          SI          SI          SI          
3060022952030004ORGAMED S.A.                                                0000                                                       SI          SI          SI          SI          
3065831081630005MARCUCCI S.A.                                               0000               4552-3167           4552-3167           SI          SI          SI          SI          
3364442682930006COMINPORT S.A.                                              0000                                                       SI          SI          SI          SI          
0306342692930007PARMA HECTOR                                                0000                                                       SI          SI          SI          SI          
2012290189130008SISTEMA ILUMINACION                                         0000                                                       SI          SI          SI          SI          
2010923728130009ELISABE JORGE DANIEL                                        0000                                                       NO          SI          SI          NO          
3050084630130010ABBOTT LABORATORIES ARG. S.A. AV VALENTIN VERGARA 7989      0000               S                   S                   NO          NO          NO          NO          
3062383011630011CALESA CIA DE LAV.                                          0000                                                       SI          SI          SI          SI          
3050077232430012ASTRAZENECA S.A.              ARGERICH 536                  0000               D                   D                   NO          NO          SI          NO          
3050381106130013BAYER S.A.                                                  0000               s                   s                   NO          NO          SI          NO          
3063648166830014BUSHI S.A.                                                  0000                                                       SI          SI          SI          SI          
2717287642630015MORICHELLI MARIA ALEJANDRA                                  0000                                                       SI          SI          SI          SI          
3064240507830016DEL GIUDICE MARIO H. S.R.L.                                 0000                                                       SI          SI          SI          SI          
3050361333230017CYANAMID DE ARGENTINA S.A.                                  0000                                                       NO          SI          SI          NO          
3051735841630018DELUCA EDUARDO S.A.CI         AV. CORDOBA 2428              0000               S                   S                   SI          SI          SI          SI          
3056174890630019ELECTRO 11                                                  0000                                                       SI          SI          SI          SI          
0000000000030020GENERAC S.R.L.                                              0000                                                       SI          SI          SI          SI          
0000000000030021REVESTIMIENTOS PEPE                                         0000                                                       SI          NO          SI          SI          
3050068197330022LABORATORIO GLAXO SACI                                      0000                                                       SI          SI          SI          SI          
2007743420930023CASSAGNE ROBERTO E.                                         0000                                                       SI          SI          SI          SI          
3063191950930024CREMED S.A.                                                 0000                                                       SI          SI          SI          SI          
3057626062430025IMPRESIONES FIRPO                                           0000                                                       SI          SI          SI          SI          
3065945562130026TODO PARA INFORMATICA S.R.L.                                0000                                                       SI          SI          SI          SI          
3062829520030027LASER FRORMS S.A.                                           0000                                                       SI          SI          SI          SI          
3063321711030028ALIKA S.R.L.                                                0000                                                       SI          SI          SI          SI          
2015272579630029TUNDIS                                                      0000                                                       SI          SI          SI          SI          
2714391660530030SUBOTOVSKY PATRICIA C.                                      0000                                                       SI          SI          SI          SI          
3061582099330031POLWER S.R.L.                                               0000                                                       SI          SI          SI          SI          
3052585490230032LAVADERO MODERNO                                            0000                                                       SI          SI          SI          SI          
3361540549930033BONIL S.R.L.                                                0000                                                       SI          SI          SI          SI          
3054585245030034LEVER Y ASOCIADOS                                           0000                                                       SI          SI          SI          SI          
3050067521330035LIX KLET SAIC                                               0000                                                       SI          SI          SI          SI          
3059996259630036EST. GRAFICO LOISI                                          0000                                                       SI          SI          SI          SI          
2313058806930037D'ANDREA DOMINGO                                            0000                                                       SI          SI          SI          SI          
3056110472330038SEKIPOS S.R.L.                                              0000               4115-7685           4115-7685           SI          SI          SI          SI          
3063953217430039CAV MEDICA                                                  0000               S                   S                   SI          SI          SI          SI          
3053697691030040MANTEIGA S.A.                                               0000                                                       SI          SI          SI          SI          
2093910646530041BASSO HILARIO                                               0000                                                       SI          SI          SI          SI          
3062026006830042FEDIMED S.A                                                 0000               4702-1900           4702-1900           SI          SI          SI          SI          
3057619282330043CASA NAPOLI S.R.L.                                          0000                                                       SI          SI          SI          SI          
3050662603630044LLAUGER S.R.L.                                              0000                                                       SI          SI          SI          SI          
2004420305830045ROIZEN RICARDO                                              0000                                                       SI          SI          SI          SI          
3050145780530046PETTINARI METAL S.A.C.I.F.I.A                               0000               S                   S                   SI          SI          SI          SI          
0000000000030047FABIANO PABLO LEONARDO                                      0000                                                       SI          SI          SI          SI          
3052822090430048FCIA. INGLESA DEL NORTE SRL.                                0000                                                       SI          SI          SI          SI          
3050167689230049FADA PHARMA S.A                                             0000                                                       NO          SI          SI          SI          
3050369146530050HOECHST ARG. S.A.                                           0000                                                       NO          SI          SI          NO          
3061608485930051UTER INTRO                                                  0000                                                       SI          SI          SI          SI          
3050069053030052ROUX OCEFA S.A.                                             0000               S                   S                   NO          NO          SI          NO          
2016793791930053LABARTETE EDUARDO J. N.                                     0000                                                       SI          SI          SI          SI          
3051557968730054IND.HOGNER SACIFA                                           0000               S                   S                   SI          NO          SI          SI          
3052821448330055D. WEINSTOCK S.R.L.           AV DIAZ VELEZ  3939           0000                                                       NO          SI          SI          SI          
3050042425330056NELRU IMPRESIONES S.A.                                      0000                                                       NO          SI          SI          NO          
2004571657130057BIOTAU DE MONICA G. ROIG                                    0000                                                       SI          SI          SI          SI          
3353042293930058CASA LAZARO COSTA S.A.                                      0000                                                       SI          SI          SI          SI          
2316751323930059PAPELERA LA ALEMANA                                         0000                                                       SI          SI          SI          SI          
3058232222430060CEUPESA S.A.                                                0000                                                       SI          SI          SI          SI          
2004407799030061BOCEDI RODOLFO                                              0000                                                       SI          SI          SI          SI          
3057794558230062CHIESA GALARRAGA                                            0000                                                       SI          SI          SI          SI          
3060671796930063ESANCO S.R.L.                                               0000                                                       SI          SI          SI          SI          
2705218058430064INSUPEL                                                     0000                                                       SI          SI          SI          SI          
3061978063530065PROMEDON S.A.                                               0000               5985-7000           5985-7000           NO          SI          SI          SI          
3054170555030066ORTOPEDIA ALEMANA S.A.                                      0000                                                       SI          SI          SI          SI          
3055351474230067SACK Y CIA. S.C.A.                                          0000                                                       SI          SI          SI          SI          
2011420750130068ADEMED                                                      0000                                                       SI          SI          SI          SI          
3054002632330069PROD. FARMACEUT. DR. GRAY S.A.                              0000               s                   s                   SI          NO          SI          SI          
3050098718530070GADOR S.A.                                                  0000               S                   S                   NO          NO          SI          NO          
3050383232830071LABORATORIO POEN S.A.C.I.                                   0000                                                       SI          SI          SI          SI          
3062572165930072MARIGO Y CIA S.R.L.                                         0000                                                       SI          SI          SI          SI          
3051602484030073LABORATORIOS BAGO S.A.                                      0000               s                   s                   NO          NO          SI          NO          
0000000000030074MEDICAL LASER                                               0000                                                       SI          NO          SI          SI          
3059422583630075ODITEC S.A.                                                 0000               s                   s                   SI          SI          SI          SI          
3059267274630076PERY RAKY S.R.L.                                            0000                                                       SI          SI          SI          SI          
3058711284830077MEDILACE S.R.L.                                             0000                                                       SI          SI          SI          SI          
3050083927530078KASDORF S.A.                                                0000                                                       NO          SI          SI          NO          
3054380000330079RADIO LLAMADA SACI                                          0000                                                       SI          NO          SI          SI          
3056223813830080TECNO SUDAMERICANA                                          0000                                                       SI          SI          SI          SI          
3350378076930081WYETH S.A.                                                  0000                                                       NO          NO          SI          NO          
3050114531530082INST. BIOLOGICO ARG.                                        0000                                                       SI          SI          SI          SI          
3065907724430083M. K. IMP. Y EXP. S.A.                                      0000                                                       SI          SI          SI          SI          
3050055852730084LA HIDROFILA ARG.                                           0000                                                       NO          SI          SI          NO          
3050121885130085QUIMICA ESTRELLA S.A.C.I e I.                               0000                                                       SI          NO          SI          SI          
3050471041230086FINADIET S.A.                                               0000                                                       SI          SI          SI          SI          
3061160581830087LADE S.A.                                                   0000                                                       NO          SI          SI          SI          
3051974686330088ERASMO S.A.C.I.                                             0000                                                       SI          SI          SI          SI          
3065832565130089MARPA S.A.                                                  0000               s                   s                   SI          NO          SI          SI          
3050351851830090PFIZER S.R.L                  COLECT PANAMERICANA KM 14 17601607VILLA ADELINA  47887017            47887017            NO          NO          SI          NO          
3050115282630091LABORATORIOS RICHMOND SACIF   AV ELCANO 4938                0000               D                   D                   NO          NO          SI          SI          
3053334053530092FCIA. REX S.R.L.                                            0000               s                   s                   SI          SI          SI          SI          
3058014383730093ROSEMBLIT MOISES I                                          0000                                                       SI          SI          SI          SI          
3063765296230094ORGANIZACION Y GESTION S.R.L.                               0000                                                       SI          SI          SI          SI          
3354768802930095RONCHAMP SACIF                                              0000                                                       SI          SI          SI          SI          
3057596192030096PLASTICORTIN                                                0000                                                       SI          SI          SI          SI          
3062190460030097FLORIAN S.R.L.                                              0000                                                       SI          SI          SI          SI          
3052744428030098PRODUCTOS ROCHE S.A.Q.e I.                                  0000                                                       NO          NO          SI          NO          
3050109689630099SANDOZ ARG. S.A.I.C.                                        0000                                                       SI          SI          SI          SI          
3063831816030100VIOR S.A.                                                   0000                                                       SI          SI          SI          SI          
0000000000030101CASA MAURO                                                  0000                                                       SI          NO          SI          SI          
3051684266730102LABORATORIO ALCON ARGENTINA SA                              0000                                                       SI          SI          SI          SI          
3061599138030103BARCLAU S.R.L.                                              0000                                                       SI          SI          SI          SI          
3051911018730104LIVAQUIM S.A.C.I. Y F.                                      0000                                                       SI          SI          SI          SI          
2004603644230105LOPEZ HORACIO                                               0000                                                       NO          SI          SI          NO          
3057019174430106RODITEX                                                     0000                                                       SI          SI          SI          SI          
3362890049930107CIA CANADIENSE DE MEDICINA SRL                              0000                                                       SI          SI          SI          SI          
2709985398630108PLASTINO HECTOR O.                                          0000                                                       SI          SI          SI          SI          
2000292573830109BILLINGHURST ROBERTO JORGE                                  0000                                                       SI          SI          SI          SI          
3350101623930110SCHERING ARG. S.A.I.C.                                      0000                                                       NO          NO          SI          NO          
2317602442930111GRA-MAR-EDUARDO ROSAENZ                                     0000                                                       NO          SI          SI          NO          
3063955220530112TACFE S.A.                                                  0000                                                       SI          SI          SI          SI          
3359703134930113ELVETIUM                                                    0000                                                       NO          SI          SI          NO          
3053847485830114ROFINA SAICF                  GOBERNADOR UGARTE 2952        0000               S                   S                   NO          NO          NO          NO          
3050351776730115CRAVERI S.A.I.C.                                            0000                                                       SI          SI          SI          SI          
3053920359930116IMMUNO S.A.                                                 0000                                                       SI          SI          SI          SI          
2012080610730117CASA PARISI De F.R. Espasandin                              0000               4932-6807           4932-6807           SI          SI          SI          NO          
3060278119030118LABORATORIOS RONTAG S.A.                                    0000                                                       SI          SI          SI          SI          
3052564112730119FEVRE, IANATA Y ROBIGLIO S.R.L                              0000                                                       SI          SI          SI          SI          
3050057148530120LABORATORIO ELEA SACIFIA                                    0000               s                   s                   SI          SI          SI          SI          
3050260548430121ENASIL S.R.L.                                               0000                                                       SI          SI          SI          SI          
3057075666030122MADERERA CORDOBA S.A.                                       0000                                                       SI          SI          SI          SI          
3052990074730123LABORATORIO DOMINGUEZ S.A.                                  0000               S                   S                   SI          NO          SI          SI          
3050383256530124MERCK QUIMICA ARGENTINA SAIC                                0000                                                       SI          SI          SI          SI          
3062661359030125FARMACIA SOCIAL BALVANERA SCS.                              0000                                                       SI          SI          SI          SI          
3063453670830126INDEA S.A.                                                  0000                                                       SI          SI          SI          SI          
3050113859930127MICHELI S.A.                                                0000                                                       SI          SI          SI          SI          
3053562115930128BOHERINGER INGELHEIM S.A.                                   0000               S                   S                   NO          NO          SI          NO          
3057581882630129CASA ABE                                                    0000                                                       SI          SI          SI          SI          
3060291769630130EMECRA S.A.                                                 0000               S                   S                   SI          SI          SI          SI          
3011111111830131ARGENTIA S.A.C.I.F.I.                                       0000               S                   S                   SI          SI          SI          SI          
2010454497630132CIBA GEIGY                                                  0000                                                       SI          SI          SI          SI          
3063449745130133ALTHACRUS S.A.                                              0000                                                       SI          SI          SI          SI          
3060889290330134LABORATORIO SAN ANTONIO S.R.L.                              0000               4573-1415           4573-1415           SI          NO          SI          SI          
3065287327430135ASISTHOS S.R.L.                                             0000                                                       SI          SI          SI          SI          
3051643733930136LAB. LEPETIT S.A.                                           0000                                                       NO          SI          SI          SI          
2714056955630137CANDELINO JOSEFINA MABEL                                    0000               S                   S                   SI          SI          SI          SI          
2706691719930138VISION                                                      0000                                                       SI          SI          SI          SI          
3050327023030139GOBBI NOVAG S.A.                                            0000               S                   S                   SI          SI          SI          SI          
2014865967330140PASTORE RODOLFO                                             0000                                                       SI          SI          SI          SI          
2017910756330141SOUTO ROBERTO M.                                            0000                                                       SI          SI          SI          SI          
2017107115230142HANSEN MARTIN ALEJANDRO                                     0000                                                       SI          SI          SI          SI          
3059424008830143DIST. ALBERTO MARTIN S.R.L.                                 0000                                                       SI          SI          SI          SI          
2314508318430144VIVAS NORMA I.                                              0000                                                       SI          SI          SI          SI          
2003874216830145ORTOPEDIA SAN ANDRES                                        0000                                                       SI          SI          SI          SI          
3365855801930146INTERHOSPITAL S.A.                                          0000                                                       SI          SI          SI          SI          
3064266156230147PHARMOS S.A.                                                0000               S                   S                   SI          SI          SI          SI          
3050054729030148LABORATORIOS  BERNABO S.A.                                  0000               s                   s                   NO          NO          SI          NO          
2004530954230149LESTON JOSE MARIA                                           0000                                                       SI          NO          SI          SI          
3064974877930150IMEXPA S.R.L.                                               0000                                                       SI          SI          SI          SI          
3061927874330151RX ASESORES S.R.L                                           0000                                                       SI          SI          SI          SI          
3050673300230152UNITAN S.A.I.C.A.                                           0000                                                       SI          SI          SI          SI          
3351934644930153BAGUETTE JOSE                                               0000                                                       SI          SI          SI          SI          
3052320075130154MEDIX I.C.S.A.                JOSE ARIAS 293                0000               5354-3708           5354-3708           NO          NO          NO          SI          
2004410978730155DROGUERIA SAMOA                                             0000                                                       SI          SI          SI          SI          
3363220810930156COPYSTAR S.A.                                               0000                                                       SI          SI          SI          SI          
3051988320830157INST. DE SANEAMIENTO AMBIENTAL                              0000                                                       SI          SI          SI          SI          
3061549034930158ONTEX ARGENTINA S.A.                                        0000                                                       SI          SI          SI          SI          
3052099177430159TODOLUZ S.A.C.I.F.                                          0000                                                       SI          SI          SI          SI          
3063216107330160FASCOR                                                      0000                                                       SI          SI          SI          SI          
2713769775630161SABATINI ADRIANA                                            0000                                                       SI          SI          SI          SI          
3066095310430162NEW CEM S.R.L.                                              0000                                                       SI          SI          SI          SI          
3058159259730163DI SUR S.R.L.                                               0000                                                       SI          SI          SI          SI          
3064533803730164NIESERT S.A.                                                0000                                                       SI          SI          SI          SI          
3050139538930165GRUPO LINDE GAS ARGENTINA SA                                0000               S                   S                   NO          SI          SI          NO          
3350086797930166LABORATORIO TEMIS LOSTALO                                   0000                                                       NO          NO          SI          NO          
2018294706830167MARCHILI JOSE PABLO                                         0000                                                       SI          SI          SI          SI          
3060815345030168ALDECA S.A.                                                 0000                                                       SI          SI          SI          SI          
3050348783330169IOA S.A.C.I.                                                0000                                                       SI          SI          SI          SI          
3062005278330170TEXTIL GAMA S.A.                                            0000                                                       SI          SI          SI          SI          
3066347527030171OLSTEIN - RIETTI                                            0000                                                       SI          SI          SI          SI          
3365855801930172DIV EQ INTERHOSPITAL S.A.                                   0000                                                       SI          SI          SI          SI          
2004307804730173PODESTA BARTOLOME                                           0000                                                       SI          SI          SI          SI          
3057076089730174LABORATORIOS BACON SAIC                                     0000               S                   S                   SI          SI          SI          SI          
3362379117930175DAMAN S.A.                                                  0000               S                   S                   SI          SI          SI          SI          
3051887009930176DULCITO S.A.I.C.                                            0000                                                       SI          SI          SI          SI          
3054850170530177DYNE ARGENTINA S.A.                                         0000                                                       SI          SI          SI          SI          
3060238498130178NADUR HUGO Y CIA. S.R.L.                                    0000                                                       SI          SI          SI          SI          
3064560289330179COMENCO S.R.L.                                              0000                                                       SI          SI          SI          SI          
3064014137530180ELECTROMEDIK S.A.                                           0000               S                   S                   SI          SI          SI          SI          
3051988733530181MICROSULES ARGENTINA S.A.                                   0000                                                       SI          SI          SI          SI          
3061733756430182ALPHA MEDICA S.A.                                           0000                                                       SI          SI          SI          SI          
3063765807330183DICSSON                                                     0000                                                       SI          SI          SI          SI          
3065150548430184NETCO S.A.                                                  0000                                                       NO          SI          SI          NO          
3059924355730185ROBIN HNOS                                                  0000                                                       SI          SI          SI          SI          
3064211101530186MAXIPAPEL S.R.L.                                            0000                                                       SI          SI          SI          SI          
3053888352930187LABORATORIO FELIPE BAJER SAIC                               0000                                                       SI          SI          SI          SI          
3062707617330188TRO-PAK S.A.                                                0000               S                   S                   SI          SI          SI          SI          
3063601338930189CIRUGIA CORDOBA                                             0000                                                       SI          SI          SI          SI          
3050085848230190G & M S.A.                                                  0000                                                       NO          SI          SI          NO          
2717662814130191RUSSO SILVIA CRISTINA                                       0000                                                       SI          SI          SI          SI          
3064684457230192FREM S.R.L.                                                 0000                                                       SI          SI          SI          SI          
3065098266130193DAKTOR S.A.                                                 0000                                                       SI          SI          SI          SI          
3059722829130194BUCELLO Y ASOCIADOS S.R.L.                                  0000                                                       SI          SI          SI          SI          
2022092332130195MASUSA                                                      0000                                                       SI          SI          SI          SI          
3054101834030196LAVADERO LOS VASCOS                                         0000                                                       SI          SI          SI          SI          
3060380823830197VALOT S.A.                                                  0000               S                   S                   SI          NO          SI          SI          
2017885735630198GUARDO ANTONIO MARTIN                                       0000                                                       SI          SI          SI          SI          
3069088650930199LABORATORIO PCB                                             0000                                                       SI          SI          SI          SI          
2706186633230200BARBAGELATA MARIA MERCEDES                                  0000                                                       SI          SI          SI          SI          
3065592164430201DAHUJORI                                                    0000                                                       SI          SI          SI          SI          
3050372481930202INDUSTRIAS ELECT ANTARES S.A.                               0000                                                       SI          SI          SI          SI          
3060532668030203REVISTA APJ                                                 0000                                                       NO          SI          SI          NO          
3050160299630204NYCOMED S.A.                                                0000                                                       NO          NO          SI          NO          
3063858161930205CRALEN S.R.L.                                               0000                                                       SI          SI          SI          SI          
3054898185530206ALGODONERA MODELO S.R.L.                                    0000                                                       SI          SI          SI          SI          
2004403282230207GIFIDAT                       AV. SAN MARTIN 2576 0 0       0000                                                       SI          SI          SI          SI          
3051700355330208BIOTRON                                                     0000                                                       SI          SI          SI          SI          
2000863473530209B L U M                                                     0000                                                       SI          SI          SI          SI          
3053422770830210SIREX S.A.                                                  0000                                                       SI          SI          SI          SI          
2004443474230211MEGY HORACIO G.                                             0000                                                       NO          SI          SI          NO          
2012101876530212DESINFECTADORA SUR                                          0000                                                       SI          SI          SI          SI          
3058025936330213CICAS S.R.L.                                                0000                                                       SI          SI          SI          SI          
3062848079230214FARMACIA GALA S.C.S.                                        0000                                                       SI          SI          SI          SI          
3065492969230215BANK S.A.                                                   0000                                                       SI          SI          SI          SI          
2307887735930216FLORES CARLOS ALBERTO         30285SAN NICOLAS 95           1407CAPITAL        S                   S                   SI          SI          SI          SI          
3061796454230217BRUNELLO E HIJOS CARLOS FELIX                               0000                                                       SI          SI          SI          SI          
2713768825030218VILLAVICENCIO MABEL MINERVA                                 0000                                                       NO          SI          SI          NO          
3056095010830219DATA MEMORY S.A.                                            0000                                                       SI          SI          SI          SI          
3364461698930220LEXEL S.R.L.                                                0000               4305-5617           4305-5617           SI          SI          SI          SI          
2008573345230221GARCIA LUIS GERARDO                                         0000                                                       SI          SI          SI          SI          
2012601404030222HI TECH                                                     0000                                                       SI          SI          SI          SI          
2716198845130223SANCOVICI MARTHA P.                                         0000                                                       SI          SI          SI          SI          
3065388365630224ETILEN S.R.L.                                               0000               D                   D                   SI          SI          SI          SI          
3064354774730225BLANCA NIEVE S.R.L.                                         0000                                                       SI          SI          SI          SI          
3069879382830226DISTRIBUIDORA FULGOR                                        0000               S                   S                   SI          SI          SI          SI          
3068023513530227ADOX S.A                      M.A. RODRIGUEZ 2464           0000                                                       SI          SI          SI          SI          
3062896320330228BIOMED S.R.L.                                               0000                                                       SI          SI          SI          SI          
3363836040930229MACROVENT S.R.L.                                            0000                                                       SI          SI          SI          SI          
3050545917930230SURIANO S.A.                                                0000                                                       SI          SI          SI          SI          
3050396126830231IBM ARGENTINA S.A.                                          0000                                                       SI          SI          SI          SI          
3364143080930232MATCUR S.A.                                                 0000                                                       SI          SI          SI          SI          
2314015808930233CORBELLE JORGE L.                                           0000                                                       SI          SI          SI          SI          
3061567849630234C.I.R.C.E.                                                  0000                                                       NO          SI          SI          NO          
2011320112730235INSUMOS QUIRURGICOS-ABILLEIRA                               0000                                                       SI          SI          SI          SI          
2004517705030236FEDYSZYN BASILIO CARLOS                                     0000                                                       SI          SI          SI          SI          
3064122818030237PROGETTO S.R.L.                                             0000                                                       SI          SI          SI          SI          
2004592917630238DI NUNZIO HORACIO JORGE                                     0000                                                       SI          SI          SI          SI          
3055879161230239MEDICINA ELECTRONICA                                        0000                                                       SI          SI          SI          SI          
3052194421430240CHEMOTECNICA SYNTIAL                                        0000                                                       NO          SI          SI          SI          
2313848252930241FORTINI JUAN CARLOS                                         0000                                                       SI          SI          SI          SI          
3061492635630242AMERICAN LENOX S.A                                          0000               SS                  SS                  SI          SI          SI          SI          
3051612669430243B. ACHER ARGENTINA S.R.L.                                   0000               4921-0173           4921-0173           SI          SI          SI          SI          
2714038832230244GROBA PATRICIA M.                                           0000                                                       SI          SI          SI          SI          
3060656652930245JAEJ S.A                                                    0000                                                       NO          SI          SI          SI          
0000000000030246JAEJ S.A                                                    0000                                                       SI          SI          SI          SI          
0000000000030247PLASTICOS PRIMOR S.R.L.                                     0000                                                       SI          NO          SI          SI          
3065173617630248INFORMATICA TECNOLOGIA SERV.SA                              0000                                                       SI          SI          SI          SI          
3051643733930249DOW QUIMICA ARGENTINA S.A.                                  0000                                                       SI          SI          SI          SI          
3064901185730250IMPASS S.R.L.                                               0000                                                       SI          SI          SI          SI          
2004516669530251ESTUDIO FIORITO                                             0000                                                       SI          NO          SI          SI          
2004114352630252DE LA SERNA FEDERICO                                        0000                                                       SI          SI          SI          SI          
3063923351730253IMAGENES MEDICAS S.R.L.                                     0000                                                       SI          SI          SI          SI          
2311378884430254PUBLICIDAD BLANCA DE OSUNA    ENTRE RIOS  622               0000                                                       SI          SI          SI          SI          
2011825886030255VILLAFANE ANGEL ARTURO                                      0000                                                       SI          SI          SI          SI          
3161476682730256INFORMATICA ECONOMICA S.A.                                  0000                                                       SI          SI          SI          SI          
2012668524730257CACHARRON JOSE LUIS                                         0000                                                       SI          SI          SI          SI          
3364771799930258CAM. ARG. DE SANATORIOS INDEP.                              0000                                                       NO          SI          SI          NO          
2006252771530259BASGALL WENDELINO ERNESTO                                   0000                                                       NO          NO          SI          NO          
3050209419630260RAFFO S.A.                                                  0000                                                       NO          SI          SI          NO          
3056616888630261CASA AGUSTIN                                                0000                                                       SI          SI          SI          SI          
3059701350330262JANSEN FARMACEUTICA                                         0000                                                       NO          SI          SI          NO          
2004550783230263A.M. LAMBERTINI GRAFICA                                     0000                                                       SI          SI          SI          SI          
2016725251730264ROHEMA INFORMATICA                                          0000                                                       SI          SI          SI          SI          
2704845492030265INKEX S.R.L.                                                0000                                                       SI          SI          SI          SI          
2004530369230266MON OSCAR MARIA               CORRIENTES 1302               0000                                                       SI          NO          SI          SI          
0000000000030267MON OSCAR MARIA                                             0000                                                       SI          SI          SI          SI          
2016964444730268MC INFORMATION SOURCE                                       0000                                                       SI          SI          SI          SI          
3064145437730269EL HISPANO S.R.L.                                           0000                                                       SI          SI          SI          SI          
3055978110630270DERBO VOLQUETES S.A.I.C.I.                                  0000                                                       SI          SI          SI          SI          
3062774486930271H L B                                                       0000                                                       SI          SI          SI          SI          
2004528050130272INSUGRAF                                                    0000                                                       SI          SI          SI          SI          
2010107662930273LAVAPLANCH                                                  0000                                                       SI          SI          SI          SI          
3061049879130274COTTON BLUE S.A.                                            0000                                                       SI          SI          SI          SI          
3059716119730275CILAG FARMACEUTICA S.A.                                     0000                                                       SI          SI          SI          SI          
3054018907930276LA CASA DE LOS HULES S.C.A.                                 0000                                                       NO          SI          SI          NO          
3365552467930277SETEX S.A.                                                  0000                                                       SI          SI          SI          SI          
3051963262030278INVESTIGACIONES DUQUE S.A.    GRAL. URQUIZA 340             1215CAPITAL        4931                4931                SI          SI          SI          SI          
2008289290830279EDICIONES DEL SOL             PIROVANO 344                  1437CAPITAL        925-4184            925-4184            SI          SI          SI          SI          
2712056218030280RODRIGUEZ DEL VALLE SUSANA    STEPHENSON 2559               1222MARTINEZ                                               SI          SI          SI          SI          
2007618197830281MAUVECIN CARLOS ENRIQUE       AZCUENAGA  880                1115CAP            /                   /                   SI          SI          SI          SI          
2004049878930282BLASON-PALOMARES RAUL         FLORIDA 259 2                 1115CAPITAL        394-8684            394-8684            SI          SI          SI          SI          
3061184189930283CIPAR S.A.                    AV. CORDOBA 2462 4 H          961-CAPITAL        4961-0720           4961-0720           SI          SI          SI          SI          
2004190051330284YARYURA TOBIAS FELIPE M.      SAN MARTIN 492 PISO 1*        1004CAPITAL                                                NO          NO          SI          NO          
3053386474730285ADECRA                        MONTEVIDEO 651 P 10           1019CAPITAL        374-2126/1563       374-2126/1563       SI          NO          SI          SI          
2017031321730286BAU                           AV. FEDERICO LACROZE 3049     1426CAPITAL                                                SI          SI          SI          SI          
3054667284730287AGUAS ARGENTINAS              AVENIDA CORDOBA 2000          0000CAPITAL FEDERAL                                        NO          NO          SI          NO          
3066255327830288                              REYNOSO 2034                  1611BS.AS.         742-2411            742-2411            SI          SI          SI          SI          
3063785861730289CASHER CENTER PEHER S.R.L.    AV. CORDOBA 2424              1120CAPITAL                                                SI          SI          SI          SI          
2014363653530290MILLER CARLOS ENRIQUE         MONROE 1273                   1428CAP                                                    SI          SI          SI          SI          
3059020343930291NEC ARGENTINA SA              AVDA SAN MARTIN  5020         1602CAPITAL        4010-6000           4010-6000           NO          NO          NO          NO          
2714618239430292GAGO SILVIA L.                AV DE LOS INCAS 5153 17 1     1427CAP            523-3857            523-3857            SI          SI          SI          SI          
3065786367630293METROGAS S.A.                 GREGORIO ARAOZ LAMADRID 1360  1267CAPITAL FEDERAL43091010            43091010            NO          NO          SI          NO          
3065458468730294PM                            SIMON DE IRIONDO 1009         1644VICTORIA       743-8217            743-8217            SI          SI          SI          SI          
2004552109630295DELMATED                      AV. DE LOS INCAS 5187         1427CAPITAL                                                SI          SI          SI          SI          
3065917862830296LABORATORIOS BIOIN S.R.L.     AV BELGRANO 1431 3 PISO OF "221093CAPITAL        383-2546            383-2546            SI          SI          SI          SI          
3063031223630297BAGI. S.R.L.                  AV. BELGRANO 11431 3P OF 22   1093CAPITAL        381-9586            381-9586            SI          SI          SI          SI          
2010794602130298BIDNER RICARDO LEON           ROOSEVELT FRANKLIN D 2846 PB  1428CAPITAL        4545-7818           4545-7818           SI          SI          SI          SI          
3060198992830299QUIMICA DEL SANTO S.A.        LA PAMPA 2086 5 P             1428CAPITAL        775-2847            775-2847            SI          SI          SI          SI          
3065190702730300UPJOHN ARGENTINA S.A.         MENDOZA 1259                  1259BS.AS.         1                   1                   SI          SI          SI          SI          
2013749164930301BUSCEMA JUAN JOSE             TAYLOR 1331                   2501ADROGUE        294-6906            294-6906            SI          SI          SI          SI          
3064397708330302WOLF & WOLF                   AV. PUEYRREDON 1572 P.3*B     1414CAPITAL        583-9164            583-9164            SI          SI          SI          SI          
3052612491630303DELOITTE & CO. S.A.           SARMIENTO 624                 1041CAPITAL        4320-2700           4320-2700           SI          NO          SI          SI          
2716711796730304SIGAL SUSANA EMMA             AMENABAR 2235 8               1428CAPITAL                                                SI          SI          SI          SI          
3363895623930305LAUROS INTERNACIONAL S.A.     AV. RIVADAVIA 5431 P 1 DTO 6  1424CAPITAL        902-2060            902-2060            SI          SI          SI          SI          
3060453338030306TAUSEM S.A.                   CONSTITUYENTES 1516           1650BS.AS.         4753-1696           4753-1696           SI          SI          SI          SI          
3059849850030307JOHNSON & JOHNSON MEDICAL S.A AV COLECTORA PANAMERICANA OEST1642SAN ISIDRO     s                   s                   NO          NO          NO          NO          
3050159608230308LABORATORIOS CASASCO S.A.I.C. CARABOBO 22                   632-CAPITAL        S                   S                   SI          NO          SI          SI          
3055980797030309IRAOLA Y CIA. S.A.            VIAMONTE 2146                 952-CAPITAL        S                   S                   SI          SI          SI          SI          
3350101685930310ALGODONERA ACONCAGUA S.A.     AVDA LAS HERAS 320            1876BERNAL         1                   1                   NO          SI          SI          SI          
3054612840330311CEMIC                         SANCHEZ DE BUSTAMANTE 2560    1425CAPITAL                                                NO          SI          SI          NO          
2013147693130312CHEHIN                        WERNICKE 1562 - -             1607V.ADELINA      735-0026            735-0026            SI          SI          SI          SI          
3066015923830313CENTRO TECNICO PASCO          PASCO 63                      1081CAPITAL        951-2987            951-2987            SI          SI          SI          SI          
2304365014930314ABATE MARIANO                 CORDOBA 2617                  1187CAPITAL                                                SI          SI          SI          SI          
2010555115130315D'OLIVEIRA HECTOR AGUSTIN     AZCUENAGA 880                 1115CAP. FEDERAL                                           SI          SI          SI          SI          
2004047132530316CASA DOT                      AZCUENAGA 125                 1029CAPITAL        S                   S                   SI          SI          SI          SI          
2008447163230317ARENA EDUARDO ALBERTO         ITUZAINGO 119 6 E             1642SAN ISIDRO     15-5647-4964        15-5647-4964        SI          SI          SI          NO          
3063321513430318MUTUAL DE SANIDAD             TTE. GRAL. J.D. PERON 4288    1181CAPITAL                                                SI          NO          SI          SI          
2710356491930319GALUZZI CRISTINA              ARMENIA 2374                  1425CAPITAL                                                SI          SI          SI          SI          
2017576317230320MORINIGO RICARDO A.           ARENALES  2540 11             1425CAP. FEDERAL                                           SI          SI          SI          SI          
2706192600930321KARPILOVSKY NORMA             ESTADO DE ISRAEL  4252 1 B    1185CAPITAL                                                SI          SI          SI          SI          
2016885340930322KAIRUZ PEDRO V.               PACHECO DE MELO 2926 8 C      1425CAPITAL                                                SI          SI          SI          SI          
3052258440830323A.B. GOLDEMBERG Y CIA. SACIF  AV. LAPRIDA 4840              1603V. MARTELLI                                            NO          SI          SI          NO          
2007522847430324HERMOSA CECILIO               CALLE 136  881 0 0            1884BERAZATEGUI    256-4463            256-4463            SI          SI          SI          SI          
3052649846830325GRIENSU S.A.                  AV. J.A. ROCA 636             0001CAPITAL        S                   S                   SI          SI          SI          SI          
3050119062030326DR. LAZAR & CIA S.A.          AVDA VELEZ SARSFIELD 5855     1605MUNRO          762-0181            762-0181            SI          SI          SI          SI          
3050058783730327C.A.                                                        1028CAPITAL        952-5140            952-5140            SI          SI          SI          SI          
3050155507630328CRONOS S.A.I.C.               SAN MARTIN 663                000SCAPITAL        s                   s                   SI          SI          SI          SI          
3054453553230329BARONE INDUSTRIA LTDA.        MAZA 1869                     1240CAPITAL                                                SI          SI          SI          SI          
3054585245030330X-ON SISTEMAS S.A.            AMENABAR 3330                 1115CAPITAL        702-9627            702-9627            SI          SI          SI          SI          
3058711468930331EQUIPAMIENTO SALGUERO         GUEMES 2946                   0000CAPITAL        826-4711            826-4711            SI          SI          SI          SI          
3063144527230332TECNOLOGIA LISTER             CASEROS 3349/51               0000CAPITAL                                                SI          SI          SI          SI          
3060012470230333UNIC COMPANY S.R.L.           AV. BELGRANO 615 2 A          331-BS. AS.        4205-4666           4205-4666           SI          SI          SI          SI          
0000000000030334BOLSAS-PLAST                  ROCA 316                      763-SAN ISIDRO     763-9588-           763-9588-           SI          NO          SI          SI          
3054559183530335WELLCOME ARG. L.T.D.          ALEM 619                      1001BS.AS.         312-0896            312-0896            SI          SI          SI          SI          
2701796502130336BLANCO SUSANA AURELIA         OLIDN 81 B                    1408CAPITAL                                                SI          SI          SI          SI          
2004204412230337MARIANI DOLAN ALEJANDRO       VIAMONTE 759                  0000CAPITAL                                                NO          SI          SI          NO          
3063967197230338VITALCARE S.R.L.              GRAL JUAN LAS HERAS 3784      0000V.MARTELLI     760-9374            760-9374            SI          SI          SI          SI          
2310108561930339MANGANELLI RICARDO            ALVEAR 5829                   1650BILLINGHURST   S                   S                   SI          SI          SI          NO          
3065991879630340ALFA-MED S.R.L.               AV. CORDOBA 2467              1120CAPITAL        962-0519/8540       962-0519/8540       SI          SI          SI          SI          
3350170702930341IVAX ARG S.A.                 .                             VENT636-3475       A                   A                   SI          NO          SI          SI          
3060411239330342GLECIPLAST S.A.               PRIMER ENTRERRIANO 271        2840GUALEGUAY      03444-423133        03444-423133        SI          SI          SI          SI          
3064687005030343CTRO. ARG. DES. INF. S.A.     AV. CORDOBA 1513 7 B          1055CAPITAL                                                SI          SI          SI          SI          
3064358950430344CEDEX S.R.L.                  BERNARDO DE IRIGOYEN 190      1072CAPITAL        334-5135            334-5135            SI          SI          SI          SI          
3360607216930345SERVICINTAS S.A.              CORDOBA 859 2 A               1054CAPITAL        342-4227            342-4227            SI          SI          SI          SI          
3062148384230346SERENDIPIA S.A.               HIDALGO  857                  0000CAPITAL FEDERALS                   S                   SI          SI          SI          SI          
2018452401630347UNICORP COMPUTACION           LAVALLE 1616 4 P              0000CAPITAL                                                NO          SI          SI          NO          
3059607801630348CARLISI ANGEL S.A.            J. CABRERA 3878               1186CAPITAL                                                SI          SI          SI          SI          
2010555273530350INTILI IMPRESIONES            POTOSI 3317                   1686WILLIAMS MORRIS665-5174            665-5174            SI          SI          SI          SI          
3061356438830351TEXTIL FIBREX S.A.I.C. e I.   AVDA PTE J.D. PERON 3741      1822VALENTIN ALSINA208-5413            208-5413            SI          SI          SI          SI          
2004191122130352DEVOTO JORGE DAVID            AGUERO  1775 1 B              1425CAPITAL        48233082            48233082            SI          NO          SI          SI          
2304355325930353M V                           BARTOLOME MITRE 2777          1039CAPITAL        865-1013            865-1013            SI          SI          SI          SI          
3061410471230354EPSON ARGENTINA S.A.          RUTA NACIONAL 38 EL BANADO 0  4707SAN ISIDRO     S                   S                   NO          NO          NO          NO          
3066138198830355ABRILMET S.A.                 SAN FRANCISCO 1275/81         1708MORON          485-4910            485-4910            SI          SI          SI          SI          
3056621686430357ORTOPEDIA RIVADAVIA S.A.      AV. RIVADAVIA 4314            1205CAPITAL        981-6021            981-6021            SI          SI          SI          SI          
3353811293930358DROGAL S.A.C.I.F.I.           BACACAY 3849                  0000CAPITAL        4674-1237           4674-1237           SI          SI          SI          SI          
3063236406330359ITALPANAL S.A.                OTAMENDI 873/75               1879QUILMES        448-9094            448-9094            SI          SI          SI          SI          
3062729448030360DELTA FARMA S.A.              SARANDI 316                   1081BS.AS.         951-1056            951-1056            SI          SI          SI          SI          
3064410812730361E. C. S.A.                    CERRITO 1136 5 P              1010CAPITAL        40125181            40125181            SI          NO          SI          SI          
2004368730230362BARATA AVELINO DANIEL         URIBURU 634 1 D               0000CAPITAL                                                SI          SI          SI          SI          
2013080058130363PRYLUKA DANIEL H.             BAUNESS 1426                  1431CAPITAL        51-7590             51-7590             SI          NO          SI          SI          
3054016185930364LARA Y CIA S.R.L.             GRAL PICO 138                 1768VILLA MADERO   4442-1608/5778      4442-1608/5778      SI          SI          SI          SI          
2013711587630365SPIR                          ROSETI 2402                   1636OLIVOS         656-2222            656-2222            SI          SI          SI          SI          
3062912204030366DIPROQUIM S.A.                ALVAREZ THOMAS 1204           1427CAPITAL        552-8956            552-8956            SI          SI          SI          SI          
3050036280030367IMPREMED S.R.L.               CASTRO 1649                   1237CAPITAL        4923-7132           4923-7132           SI          SI          SI          SI          
3051705930330368COLECCION SACIF               FLORIDA 890 PISO 1            1005CAPITAL        s                   s                   SI          SI          SI          SI          
3362807218930369CLEVER Y ASOCIADOS SRL        AV. MITRE 200/206             0000AVELLANEDA                                             NO          SI          SI          NO          
2304319893930370LABORATORIO EDUARDO KAMPEL    AV. CORDOBA  4692             1414CAPITAL        1                   1                   SI          SI          SI          SI          
3050003486230371INST.ITALO ARG.DE SEG.GRAL S.AAV.PTE R.SAENZ PENA 890       1035CAP. FED.      328-9170            328-9170            NO          SI          SI          NO          
2014014713430372VIDAURRETA SANTIAGO           BILLINGHURST 1611 4 C         1425CAPITAL                                                SI          NO          SI          SI          
2007605700230373DISTRIBUIDORA COLOMBO         COLOMBRES 893 3 B             1218CAPITAL                                                SI          SI          SI          SI          
2313086069930374CERRAJERIA ALBERTO-DE PABLO G AZCUENAGA 1047                1047CAPITAL        4824-4315           4824-4315           SI          NO          SI          SI          
3358254961930375FCIA. NUEVO DIEGO'S S.C.S.    PASTEUR 238                   0000CAPITAL        4931-8705           4931-8705           SI          SI          SI          SI          
3065999873030376INTESA S.R.L.                 AVELLANEDA 1085               1704RAMOS MEJIA    4453-0559           4453-0559           SI          SI          SI          SI          
2709967448830377MALENCHINI SONIA              FITZ ROY 2442 P 1 C           1425CAPITAL                                                SI          SI          SI          SI          
3051972826130379VETERE S.R.L.                 TALCAHUANO 267                1013CAPITAL        s                   s                   SI          SI          SI          SI          
3053174503130380NOBALUX                       HIPOLITO IRIGOYEN 3200        1207CAPITAL                                                SI          SI          SI          SI          
3353739964930381IMPACTO S.A.                  ECUADOR 577                   1214CAPITAL        87-6035             87-6035             SI          SI          SI          SI          
3052169058130382BOLCOLLIA S.A.I.C.            SAAVEDRA 546                  0000CAPITAL                                                SI          SI          SI          SI          
3364903198930383TECNOLOGIA MEDICA S.A.        AV. CALLAO 25 5 P DTO K       1022BS. AS.        222-0283            222-0283            SI          SI          SI          SI          
3363113675930384R.R. MARTIN S.R.L.            AVDA SAN MARTIN 3175          1678CASEROS        750-1050            750-1050            SI          SI          SI          SI          
3054584853430385UNANUT S.A.                   S. MARTIN DE TOURS 2952       1425CAPITAL        S                   S                   SI          NO          SI          SI          
3065692758130386CARRIER ARGENTINA S.A.        RIVADAVIA 611 PISO "6"        1002CAPITAL        4382-1575           4382-1575           SI          NO          SI          SI          
2013062821530387HIDROGUER                     MARIANO R. CASTEX 4829        1650SAN MARTIN     768-9032            768-9032            SI          SI          SI          SI          
2004160154030388BAZAR YULENE-ELIAS KARGMAN    CONSTITUCION 2864             1254CAPITAL        S                   S                   SI          SI          SI          SI          
3063945373830389TELECOM                       MAIPU 1210 P 9                1006CAPITAL                                                NO          NO          SI          NO          
3058543623930390TERMOMETROS ARGENTINOS S.A.   SAN PEDRO 6025                0000CAPITAL        687-0136            687-0136            NO          SI          SI          SI          
3064025414530391ASMOPUL S.R.L.                AV. PAVON 3968                0000CAPITAL                                                SI          SI          SI          SI          
3065511651230392EDESUR S.A.                   SAN JOSE 140                  1076CAPITAL                                                NO          NO          SI          NO          
2008462586930393NEIRA JORGE                   PARRAGUAY 2302 15. 3.         1121CAPITAL                                                SI          SI          SI          SI          
2008474031530394PEREZ CHADA DANIEL            JUNIN 1384 1RO                1113CAPITAL                                                SI          SI          SI          SI          
2008382545730395YUNK OSCAR                    VTE.LOPEZ Y  PLANES 624 - -   1636BS  AS                                                 NO          SI          SI          NO          
2008104999930396MARTINEZ JORGE LUIS           MARCELO T DE ALVEAR 2346 . .  1115CAPITAL        961-6011/19         961-6011/19         SI          NO          SI          SI          
3063390098830397SACEX S.R.L.                  AV. LIBERTADOR 1024           0000CAPITAL                                                SI          SI          SI          SI          
3059881270130398BRITAM S.A.                   BARTOLOME MITRE 1110          1036CAPITAL        4381-4545           4381-4545           SI          SI          SI          SI          
2008308264030399POTENZA ALFREDO OMAR          PJE. C.S. SPIRO 5880          0001CAPITAL        VENTAS              VENTAS              SI          SI          SI          SI          
3052327205130400AIRACO S.A.                   M. PELLIZA 4096               1605MUNRO          762-3324/3685       762-3324/3685       SI          SI          SI          SI          
3064520025630401MARF S.A.                     BILLINGHURST 2384             1425CAPITAL        805-4939            805-4939            SI          SI          SI          SI          
2018678834730402PEREDO CARDENAS Y ASOCIADOS   MADAME CURIE 376 . .          1832BANFIELD                                               SI          SI          SI          SI          
3054438303130403ANTONIO SARAVIA Y CIA         VENEZUELA 714                 0000CAPITAL        331-4909            331-4909            SI          SI          SI          SI          
2004114611830404CARMI TAPICERIA DECORACIONES  CABILDO 2011                  1428CAPITAL        783-2506            783-2506            SI          SI          SI          SI          
3065148435530405PRINTER SERV. GRAFICOS        AV. LA PLATA 1266             1250CAPITAL        s                   s                   SI          SI          SI          SI          
0000000000030406L'HERMETIQUE                  .                             0000                                                       SI          SI          SI          SI          
2013080795030407UNIFORMES CINTEX              MALABIA 1545 DTO 3            0000CAPITAL                                                SI          SI          SI          SI          
3051713003230408STERLING PRODUCTS             CARLOS CASARES 3690           1644VICTORIA       774-5061            774-5061            SI          SI          SI          SI          
3053805805630409BRISTOL-MYERS SQUIBB ARG. S.A.C PELLEGRINI 1365 PB          1011CAPITAL        4789-8575 FAX       4789-8575 FAX       NO          NO          SI          NO          
0000000000030410A Y E                         .                             0000               97-2107             97-2107             SI          SI          SI          SI          
3050260005930411CASA PI-RO S.A.               AV. CORDOBA 2300              0000CAPITAL        S                   S                   SI          SI          SI          SI          
3063876181130413BAIRES GRAFICA S.R.L.         SARAZA 2033/35                1406CAPITAL        633-5333            633-5333            SI          SI          SI          SI          
3061115215530414CASA ALVEAR S.R.L.            HUMBOLDT 2240/42              1425CAPITAL                                                SI          SI          SI          SI          
2015213441030416STRUPP WERNER                 GASPAR CAMPOS 633             1638VICENTE  LOPEZ 791-4796            791-4796            SI          SI          SI          SI          
3067659142330417AGE MEDICAL S.A.              AZCUENAGA 767                 1029CAPITAL        952-0917            952-0917            SI          SI          SI          SI          
3357792965930418SANITARIOS FLORESTA SRL       SAN LUIS 2935                 1186CAPITAL        4961-0880/0646      4961-0880/0646      SI          SI          SI          SI          
3054612949330419CLINICA DEL OESTE SAS         MONTIEL 901                   1408CAPITAL                                                SI          SI          SI          SI          
3063403552030420TEC-SER S.A.                  MARIANO ACHA 3989             1431CAPITAL        S                   S                   SI          SI          SI          SI          
2004417391430421RODRIGUEZ ALCIDES J.          GORRITU 6023                  1414CAPITAL        773-4230            773-4230            SI          SI          SI          SI          
3065052707730422ELECTRONICA MEDICA S.R.L.     GRISOLOGO LARRALDE 2648 3     0000CAPITAL        701-4509            701-4509            SI          SI          SI          SI          
3052044825630423FERRETERIA VIMAR SAICFIA.     AV. ALVAREZ THOMAS 3499       1431CAPITAL        521-1890            521-1890            SI          SI          SI          SI          
0000000000030424MATERIALES SANITARIOS         JUNIN 162                     1026BS.AS.                                                 SI          NO          SI          SI          
2703614698830425FOCUS ILUMINACION             JORGE NEWBERY 1742            1426CAPITAL        775-8250            775-8250            SI          SI          SI          SI          
3357481021930426FLUORTEN S.R.L.               ALBARELLOS 4680               1605MUNRO                                                  SI          SI          SI          SI          
3064627917430427A.T.S. ADVAN.TECHNL.SOLUT. S.AFLORIDA 336 PISO 5* OF. 501   1005CAPITAL        6393-4345/4300      6393-4345/4300      SI          SI          SI          SI          
3064976309330429HIGH MEDICAL S.A.             LAVALLE 730 PISO 4*A          1407CAPITAL                                                SI          SI          SI          SI          
3350543270930430LABORGASA SACIF e I           SAN BLAS 3143                 1416CAPITAL        582-3676            582-3676            SI          SI          SI          SI          
3062870351130431PINTURERIA DEL CENTRO S.A.    SCALABRINI ORTIZ 1262         775-CAPITAL        925-3136/38         925-3136/38         SI          SI          SI          SI          
3062633079330432DECWARE S.A.                  AVDA DIRECTORIO 1326          1406CAPITAL FEDERALS                   S                   SI          SI          SI          SI          
3065701159930433MEDICAL PROFIT                CASEROS 3349/51               1263CAPITAL                                                SI          SI          SI          SI          
3057878067630434PRAXAIR ARGENTINA S.R.L.      GUEMES 463                    1870AVELLANEDA     S                   S                   NO          NO          SI          NO          
2704296244430435CASSULLO MARIA A.             ARENALES 3605 DTO 3           1425CAPITAL        821-8636            821-8636            SI          SI          SI          SI          
3050009507130436EDITORIAL CANGALLO S.A.C.I.   AVDA BELGRANO 609             1092CAPITAL FEDERAL                                        SI          SI          SI          SI          
3063464087430437DROGUERIA DIMEC S.R.L.        ESTOMEA 222                   1427BS.AS.         s                   s                   SI          SI          SI          SI          
3367734456930438CASA THAMES S.R.L.            AGUIRRE 703                   1414CAPITAL        15-5-458-7293       15-5-458-7293       SI          SI          SI          SI          
2710391000030439BEDEL LEONOR & ASOCIADOS      AVDA GARAY 325 PISO 4 DTO 7   1153CAPITAL        361-9792            361-9792            SI          SI          SI          SI          
2702963200130440LOZA MARTA SUSANA (FLOWER'S)  BILLINGHURST 2547 10 B        1425CAPITAL        26-3773             26-3773             SI          SI          SI          SI          
3061152173830441BIOIMPLANT S.A.               RODRIGUEZ PENA 694            1020CAPITAL        27-8208             27-8208             NO          SI          SI          NO          
3063924132330442DATAFARMA S.A.                MONROE 2920                   1428CAPITAL                                                NO          SI          SI          SI          
3360071626930443PROGALEN S.A.                 NAHUEL HUAPI 5844/46          1431CAPITAL        361-8373            361-8373            SI          SI          SI          SI          
3064371395730444PHARM SERVICE S.A.            RAWSON 1107                   0001CAPITAL        1                   1                   SI          SI          SI          SI          
2008406094230445SALGUERO HECTOR RICARDO       LLAVALLOL 2467 PISO 1*4       0000CAPITAL        1                   1                   NO          SI          SI          NO          
3055976138530446EL PAMPERO S.R.L.             RINCON 989                    941-CAPITAL        941-5239/9374       941-5239/9374       SI          SI          SI          SI          
3364342968930447BAZAR VIEYTES                 VIEYTES 1345                  1275CAPITAL        301-0677            301-0677            SI          SI          SI          SI          
3066202170530448KRUGER DE ARGENTINA S.A.      MENDOZA 3475                  1754SAN JUSTO      651-0434            651-0434            SI          SI          SI          SI          
3063230798130449AVON S.A.                     ACOYTE 1437                   1414CAPITAL                                                SI          SI          SI          SI          
2312497629430450CONFLOR                       WINEBERG 2702                 1636OLIVOS         790-3560            790-3560            SI          SI          SI          SI          
3067631290730451NUMET S.A.                    LAS HERAS 3660 9* B           1425CAPITAL                                                SI          SI          SI          SI          
3062379384930452AUTENTICA FARMACIA NAVEYRA SRLA. LAS HERAS 2318             1425CAPITAL                                                SI          SI          SI          SI          
3050044223530453IMPRESIONES OV                FRAGA                         1427CAPITAL        553-5806            553-5806            SI          SI          SI          SI          
2010000000930454DUST-TEX ARGENTINA S.A        AVDA. TRIUNVIRATO 3035        1427C.F            554-1844            554-1844            SI          NO          SI          SI          
3062332648530455ESTANTERIA CATRIEL COLONNIELL AV. LA PLATA 1301             1250CAPITAL        922-3226            922-3226            SI          SI          SI          SI          
0306481567130456ARCOL S.A.                    CORRIENTES 1250               0000CAPITAL                                                SI          SI          SI          SI          
2004008428330457JULIO RAUL D'OLIVEIRA         AZCUENAGA 880                 1115CF             961-9611            961-9611            NO          SI          SI          NO          
3064510420630458RABELS S.A (IMAGEN)           ARENALES 1401                 1061CF             812-2416            812-2416            SI          SI          SI          SI          
3050299074430459MULTICONIC S.A                GARAY 2281                    1256CAPITAL        941-5885/6189       941-5885/6189       SI          SI          SI          SI          
3050078198630460RAMON  GERARDO & CIA S.A.I.C. INTENDENTE AMARO AVALOS 4208  1605MUNRO          1                   1                   SI          SI          SI          SI          
3050115282630461DROGUERIA FUCHS SACIF         MORENO 1833                   1094BS.AS.         1                   1                   SI          SI          SI          SI          
2022100249130462PRIMOLUX                      AZCUENAGA 719                 0001CAP. FED.      952-7113            952-7113            SI          SI          SI          SI          
3063675245930463FERRETERIA IND. CAMITS        AV. RIVADAVIA 9825            1407CAPITAL        s                   s                   NO          SI          SI          NO          
3061481006430465PRODESA S.A.                  AV. CORONEL ROCA 3120         1434CAPITAL                                                SI          SI          SI          SI          
0000000000030466PALACIOS JARAQUEMADA J.       .                             0000                                                       SI          SI          SI          SI          
2008263471230467OLAZABAL ALFREDO E.           M.T. DE ALVEAR 2421           0000CAPITAL FEDERAL821-5887            821-5887            SI          SI          SI          SI          
3064719681730468C & C ASOCIADOS S.R.L.        JOSE BONIFACIO 398 PISO 1* A  1424CAPITAL        942-7856            942-7856            SI          SI          SI          SI          
3069080243730469CORTI Y ASOCIADOS S.R.L       CORRIENTES 2330 8 P 18        1046CAPITAL        952-1739            952-1739            SI          NO          SI          SI          
3058581850630470MEDICARE S.A.                 VIAMONTE 2146                 000SCAPITAL        S                   S                   SI          SI          SI          SI          
2015291049630471CALESUR                       JOSE MARTI 1796               1406CAPITAL                                                NO          SI          SI          NO          
3064141480430472ESTUDIO BIQUARD Y ASOCIADOS   LIBERTAD 1240 OF 19           1012CAPITAL        813-4890            813-4890            SI          SI          SI          SI          
3064703453130473CIENTIFICA H.M.               33 ORIENTALES 20              1870AVELLANEDA     208-4835            208-4835            SI          SI          SI          SI          
0000000000030474LAMBIERTO ALBERTO             .                             0000                                                       SI          SI          SI          SI          
3056026023330475EGOX S.R.L.                   AV. SAN MARTIN 460            1672VILLA LYNCH    s                   s                   SI          SI          SI          SI          
3060976921830476PROVEEDURIA MEDICA S.R.L      HUMBERTO 1 2011               0001CAPITAL        D                   D                   SI          SI          SI          SI          
3051752691230477ACCERVIL                      CORDOBA 2956                  0000OLIVOS                                                 NO          SI          SI          NO          
3055733766730478CRUZ MEDICA ALBERDI           COSQUIN 2175                  1440CAPITAL                                                SI          SI          SI          SI          
3063168958930479NATURAL FOODS S.A.            THAMES 153                    1414CAPITAL        -                   -                   SI          SI          SI          SI          
3051880190930480LABORATORIO CELTIA S.A.       BARTOLOME MITRE 4284          1201CAPITAL        981-6300            981-6300            SI          SI          SI          SI          
2718652556130481LIFE (FARIAS)                 AV. RIVADAVIA 5474            1424CAPITAL                                                SI          SI          SI          SI          
2008406094230482HECTOR R. SALGUERO ACCES. MED.LLAVALLOL 2467 PISO 1* 4      0000CAPITAL        503-2947            503-2947            SI          SI          SI          SI          
2005220437330483FLYN ROBERTO MARIO            AV REG. PATRICIOS 106 4       26-1CAPITAL        1                   1                   SI          SI          SI          SI          
3052038833430484MATERTEL S.A.                 SARMIENTO 1977/81             1044CAPITAL        D                   D                   SI          SI          SI          SI          
3053213020030485DROG. NORVIT SCHICK & CIA. SRL24 DE NOVIEMBRE 1124          1224BS.AS.         93-5029             93-5029             SI          SI          SI          SI          
2010233285830486VILAR ROBERTO                 HIPOLITO IRIGOYEN 2359 1 26   1089CAP            952-3173            952-3173            SI          SI          SI          SI          
3061680618830487LABORATORIO IGALTEX S.R.L.    PJE. LACROZE 960              1650V. PROGRESO    S                   S                   SI          NO          SI          SI          
3063150038930488CHULE GOLZMAN S.R.L.          MATURIN 2356                  1416CAPITAL                                                SI          SI          SI          SI          
0000000000030489HOECHST MARION ROUSSEL S.A.   AVELLANEDA 2202               796-OLIVOS         796-0606            796-0606            NO          SI          SI          NO          
3051560821030490LABORATORIO NORTHIA SACIFIA   MADERO 160                    1408CAPITAL        S                   S                   SI          SI          SI          SI          
3061259546830492PORTACION S.R.L.              CALLE 28 N* 4557 (EXPROGRESO 71650SAN MARTIN     753-3655            753-3655            SI          SI          SI          SI          
2012668175630493SCHWARZFELD ENRIQUE           ESMERALDA 847 13 OF G         1007CAPITAL                                                SI          SI          SI          SI          
3062642817330494LEPLIC S.A                    OS                            1115CAPITAL        Sin Numero          Sin Numero          SI          SI          SI          SI          
0305106339430495LONGHI HNOS. S.A.I.C.F.       CONCEPCION ARENAL 3740        1427CAPITAL                                                SI          SI          SI          SI          
0000000000030496INTERSYSTEMS                  .                             0000                                                       SI          SI          SI          SI          
3059812924630497PHARMA ARGENTINA S.A.         MENDOZA 1259                  1428CAPITAL FEDERAL783-3041/5          783-3041/5          SI          SI          SI          SI          
2004541827930498VAMED                         CTRO. COMERCIAL CPO A         1439B.PIEDRA BUENA                                         SI          SI          SI          SI          
3066300232130499MAMPARAS Y CERRAMIENTOS S.R.L.BLAS PARERA 119               1642SAN ISIDRO     766-2732            766-2732            SI          SI          SI          SI          
3053564524430500OXIGENOTERAPIA NORTE SACIFIA  GORRITI 3851                  1172BS.AS.         s                   s                   SI          SI          SI          SI          
3061713273330501M.F. COMPUTACION S.R.L.       SANCHEZ DE LORIA 1670         1241CAPITAL                                                SI          SI          SI          SI          
3357613680930502BIOMEDICA ARGENTINA S.A.      CERRITO 740 8 P               0000CAPITAL        372-6156            372-6156            SI          SI          SI          SI          
3063211751130503FABINCO S.R.L.                VENEZUELA 2157                1096CAPITAL        4308-5202           4308-5202           NO          SI          SI          NO          
3061796164030504FUND. INV. DIAGNOSTICO MEDICO JUNIN 1023                    1113CAPITAL                                                NO          SI          SI          NO          
3054612482330505LIBRERIA DEL PROFESIONAL S.A. SARMIENTO  1664               1042CAPITAL FEDERALS                   S                   SI          SI          SI          SI          
3052150425730506IMPLEMENTOS IND. ACESUR S.A.  BOLIVAR 469                   1066CAPITAL        s                   s                   SI          SI          SI          SI          
2010924846130508BIQUARD FELIPE                AYACUCHO 1858 10 A            1112CAPITAL                                                SI          SI          SI          SI          
2004420689830509ALBERTO JOSE MARJOVSKY        O'HIGGINS 4301                1429CAPITAL                                                NO          SI          SI          NO          
2305397492930510URRUTY ESTEBAN ROBERTO        O'HIGGINS 1251                1426CAPITAL                                                NO          SI          SI          NO          
2705440088330511PAFUMI MARTA FELISA           BARZANA 2176 3 D              1431CAPITAL                                                SI          SI          SI          SI          
3050214958630512ORGANON ARGENTINA S.A.Q.I. Y CCHARCAS 3666 Y 3673           1425CAPITAL        821-9685            821-9685            NO          SI          SI          SI          
3065273065130513LABOFARMA S.A.                AVDA DONATO ALVAREZ 3087      1427CAPITAL        52-5940             52-5940             SI          SI          SI          SI          
2705309700130514ALICIA DE LAS LAMPARAS        AVDA. CORRIENTES 1876         953-CAPITAL        4953-2020           4953-2020           SI          SI          SI          SI          
3060984704930515BARREIRO JORGE                LA RIOJA 869                  0000CAPITAL                                                SI          SI          SI          SI          
3069802964830516MAGOO de Fisdel Lionel S.H     azcuenaga  741               1029CAPITAL        S                   S                   SI          NO          SI          SI          
3063937576130517MARIA ROSA S.R.L(GRADIN SEEBER3 DE FEBRERO 1622             1642SAN ISIDRO     743-1033            743-1033            SI          SI          SI          SI          
3061770089830518DISTRIPAPER S.A               SERRANO 1335                  1414CAPITAL        47771617            47771617            NO          SI          SI          SI          
0000000000030519COLUMBA MERCEDES              .                             VENT581-0717                                               SI          SI          SI          SI          
3053599454030520QUIMICA MONTPELLIER S.A.      VIRREY LINIERS 667            1220CAP            S                   S                   NO          NO          SI          NO          
3062213222930521GARBE S.R.L.                  ALSINA 971 PISO 2*            0000CAPITAL                                                SI          SI          SI          SI          
3058095131330522SUDELEY S.A.                  AZCUENAGA 850/64              1115CAPITAL        961-9611            961-9611            SI          SI          SI          SI          
3063963805330523DATA PRINT S.A.               SANCHEZ DE BUSTAMANTE 68 4 P  1173CAPITAL        372-2665            372-2665            SI          SI          SI          SI          
0000000000030524CIRUGIA THULE                 JUAN B. JUSTO 5629            1416CAPITAL                                                SI          NO          SI          SI          
3051714662130525INOXIGAS S.R.L.               BAHIA BLANCA 2247/49          1417CAPITAL        4856-3086           4856-3086           SI          SI          SI          SI          
3052102761030526IND. MET. TURBION                                           SR. 757-3666                                               NO          SI          SI          NO          
3051936800130527LUNCHEON TICKETS S.A.         SUIPACHA 75 2 P               1008CAPITAL        3456990             3456990             SI          SI          SI          SI          
2004529155430529CIRUGIA PARODI                AV. CORDOBA 2462 4 H          1120CAPITAL        961-0720            961-0720            NO          SI          SI          NO          
2004555039830530INSECT-OFF                    SAN MARTIN 945 PB             1004CAPITAL        311-4811            311-4811            SI          SI          SI          SI          
2010124298730531MESDTARR                      MAIPU 286                     0000MORENO                                                 SI          SI          SI          SI          
3050278659430532CERAMICA SAN LORENZO I.C.S.A. .                             0000                                                       SI          SI          SI          SI          
3063211751130533UNIFORMES STAFF               VENEZUELA 2153                1096CAPITAL        943-6752            943-6752            SI          SI          SI          SI          
3357385583930534ATOMLUX S.R.L.                CALLE 105 (CHACABUCO) 761     1672V. LYNCH BS.AS.755-5193/8008       755-5193/8008       NO          SI          SI          SI          
3053495868030535LA CASA DE LOS MIL ENVASES SACAVDA. LA PLATA 1577/83        1250CAPITAL        SS                  SS                  SI          SI          SI          SI          
2004276288230536SICARO RUBEN ARMANDO          CABELLO 3140                  0000CAPITAL                                                SI          SI          SI          SI          
2016821493730537RWL                           MARISCAL RUCRE 2320           1428CAPITAL        787-1381            787-1381            SI          SI          SI          SI          
3065786367630538DIST. DE GAS METROPOLITANA S.AMONTES DE OCA 1120            1271CAPITAL                                                SI          SI          SI          SI          
3063939862130539ANTIGUA CASA CUTTICA S.A.     ENTRE RIOS 174                1079BS.AS.                                                 SI          SI          SI          SI          
3050450732330540LAB. ANDROMACO S.A.I.C.I.     AV. ING. HUERGO 1145          361-CAP.           361-8171            361-8171            NO          SI          SI          NO          
3051548878930541LABORATORIO PLOS              SANTA FE 2618                 32-9CAPITAL        821-4735            821-4735            SI          SI          SI          SI          
0000000000030542LUQUE CLAUDIA B.              .                             0000                                                       NO          SI          SI          NO          
2013211156230543ANDERSSON ALEJANDRO G.        ARRIBE  1702 4                1426CAPITAL FEDERAL                                        SI          SI          SI          SI          
0000000000030544TISSIERES MIGUEL A.           .                             0000                                                       NO          SI          SI          NO          
0000000000030545LEON PATRICIA                 .                             0000                                                       NO          SI          SI          NO          
2016885340930546KAIRUZ PEDRO V.               PACHECO DE MELO 2926 8 PISO "C1425CAPITAL                                                SI          SI          SI          SI          
2014406412830547LUQUI JUAN CARLOS             PARAGUAY 1307                 1057CAP                                                    NO          SI          SI          NO          
0000000000030548BENSADON MIGUEL               1                             12411              1                   1                   SI          SI          SI          SI          
0000000000030549PAUL NICOLAS C.               .                             0000                                                       SI          SI          SI          SI          
